:020000040800F2
:1000000000000220454500082D1900082F1900089E
:1000100031190008331900083519000800000000E4
:10002000000000000000000000000000313900085E
:100030003719000800000000D1390008353A0008DF
:100040009545000895450008954500089545000828
:100050009545000895450008954500089545000818
:100060009545000895450008954500089545000808
:1000700095450008954500089545000895450008F8
:1000800095450008954500089545000895450008E8
:1000900095450008954500089545000895450008D8
:1000A0009545000839190008954500089545000850
:1000B00095450008954500089545000895450008B8
:1000C00095450008954500089545000895450008A8
:1000D0009545000851190008611900089545000868
:1000E0009545000895450008954500089545000888
:1000F0009545000895450008954500089545000878
:100100009545000895450008954500089545000867
:100110009545000895450008954500089545000857
:100120009545000895450008954500089545000847
:100130009545000895450008954500089545000837
:100140009545000895450008954500089545000827
:100150009545000895450008954500089545000817
:100160009545000895450008954500089545000807
:1001700095450008954500089545000800000000D9
:080180009545000895450008B3
:1001C00010B5054C237833B9044B13B10448AFF391
:1001D00000800123237010BDF00900200000000002
:1001E000F4A5000808B5034B1BB103490348AFF35E
:1001F000008008BD00000000F4090020F4A50008FC
:1002000081F0004102E000BF83F0004330B54FEAC7
:1002100041044FEA430594EA050F08BF90EA020F34
:100220001FBF54EA000C55EA020C7FEA645C7FEAC7
:10023000655C00F0E2804FEA5454D4EB5555B8BFEA
:100240006D420CDD2C4480EA020281EA030382EA5B
:10025000000083EA010180EA020281EA0303362DED
:1002600088BF30BD11F0004F4FEA01314FF4801CC0
:100270004CEA113102D0404261EB410113F0004FD2
:100280004FEA03334CEA133302D0524263EB430389
:1002900094EA050F00F0A780A4F10104D5F1200E27
:1002A0000DDB02FA0EFC22FA05F2801841F1000182
:1002B00003FA0EF2801843FA05F359410EE0A5F156
:1002C00020050EF1200E012A03FA0EFC28BF4CF087
:1002D000020C43FA05F3C01851EBE37101F000453D
:1002E00007D54FF0000EDCF1000C7EEB00006EEB4A
:1002F0000101B1F5801F1BD3B1F5001F0CD34908D4
:100300005FEA30004FEA3C0C04F101044FEA44522A
:1003100012F5800F80F09A80BCF1004F08BF5FEAB1
:10032000500C50F1000041EB045141EA050130BD91
:100330005FEA4C0C404141EB0101013C28BFB1F5A3
:10034000801FE9D291F0000F04BF01460020B1FAEE
:1003500081F308BF2033A3F10B03B3F120020CDAC1
:100360000C3208DD02F1140CC2F10C0201FA0CF09F
:1003700021FA02F10CE002F11402D8BFC2F1200C04
:1003800001FA02F120FA0CFCDCBF41EA0C019040BA
:10039000E41AA2BF01EB0451294330BD6FEA040403
:1003A0001F3C1CDA0C340EDC04F11404C4F12002EE
:1003B00020FA04F001FA02F340EA030021FA04F300
:1003C00045EA030130BDC4F10C04C4F1200220FA57
:1003D00002F001FA04F340EA0300294630BD21FA95
:1003E00004F0294630BD94F0000F83F4801306BF5B
:1003F00081F480110134013D4EE77FEA645C18BF4F
:100400007FEA655C29D094EA050F08BF90EA020FE5
:1004100005D054EA000C04BF1946104630BD91EADD
:10042000030F1EBF0021002030BD5FEA545C05D1E0
:100430004000494128BF41F0004130BD14F580041F
:100440003CBF01F5801130BD01F0004545F0FE4193
:1004500041F470014FF0000030BD7FEA645C1ABFC8
:10046000194610467FEA655C1CBF0B46024650EAFF
:10047000013406BF52EA033591EA030F41F400212B
:1004800030BD00BF90F0000F04BF0021704730B5B1
:100490004FF4806404F132044FF000054FF0000186
:1004A00050E700BF90F0000F04BF0021704730B547
:1004B0004FF4806404F1320410F0004548BF40421C
:1004C0004FF000013EE700BF42004FEAE2014FEA71
:1004D00031014FEA02701FBF12F07F4393F07F4F4C
:1004E00081F06051704732F07F4208BF704793F04F
:1004F0007F4F04BF41F40021704730B54FF4607462
:1005000001F0004521F000411CE700BF50EA010264
:1005100008BF704730B54FF000050AE050EA01020D
:1005200008BF704730B511F0004502D5404261EB7D
:1005300041014FF4806404F132045FEA915C3FF4BE
:10054000D8AE4FF003025FEADC0C18BF03325FEA5B
:10055000DC0C18BF033202EBDC02C2F1200300FA0C
:1005600003FC20FA02F001FA03FE40EA0E0021FA31
:1005700002F11444BDE600BF4FEA4102B2F1E0438C
:1005800024BFB3F5001CDCF1FE5C0DD901F0004C7A
:100590004FEAC0024CEA5070B2F1004F40EB8300CA
:1005A00008BF20F00100704711F0804F21D113F1F6
:1005B0003872BCBF01F00040704741F480114FEA2F
:1005C0005252C2F11802C2F1200C10FA0CF320FAB8
:1005D00002F018BF40F001004FEAC1234FEAD323D5
:1005E00003FA0CFC40EA0C0023FA02F34FEA43033F
:1005F000CCE77FEA625307D150EA01331EBF4FF0C8
:10060000FE4040F44000704701F0004040F0FE40E2
:1006100040F40000704700BF53B94AB9002908BF31
:1006200000281CBF4FF0FF314FF0FF3000F074B9CD
:10063000ADF1080C6DE904CE00F006F8DDF804E039
:10064000DDE9022304B070472DE9F047089D044618
:100650008E46002B4DD18A42944669D9B2FA82F275
:1006600052B101FA02F3C2F1200120FA01F10CFAB1
:1006700002FC41EA030E94404FEA1C48210CBEFBE9
:10068000F8F61FFA8CF708FB16E341EA034306FB72
:1006900007F199420AD91CEB030306F1FF3080F001
:1006A0001F81994240F21C81023E63445B1AA4B24E
:1006B000B3FBF8F008FB103344EA034400FB07F7F0
:1006C000A7420AD91CEB040400F1FF3380F00A8131
:1006D000A74240F207816444023840EA0640E41B26
:1006E00000261DB1D4400023C5E900433146BDE8D2
:1006F000F0878B4209D9002D00F0EF800026C5E974
:10070000000130463146BDE8F087B3FA83F6002E8B
:100710004AD18B4202D3824200F2F980841A61EB03
:10072000030301209E46002DE0D0C5E9004EDDE721
:1007300002B9FFDEB2FA82F2002A40F09280A1EB09
:100740000C014FEA1C471FFA8CFE0126200CB1FB5E
:10075000F7F307FB131140EA01410EFB03F0884257
:1007600008D91CEB010103F1FF3802D2884200F2E4
:10077000CB804346091AA4B2B1FBF7F007FB101176
:1007800044EA01440EFB00FEA64508D91CEB040414
:1007900000F1FF3102D2A64500F2BB800846A4EB6F
:1007A0000E0440EA03409CE7C6F12007B34022FA5A
:1007B00007FC4CEA030C20FA07F401FA06F31C4389
:1007C000F9404FEA1C4900FA06F3B1FBF9F8200C96
:1007D0001FFA8CFE09FB181140EA014108FB0EF0DC
:1007E000884202FA06F20BD91CEB010108F1FF3A2C
:1007F00080F08880884240F28580A8F10208614438
:10080000091AA4B2B1FBF9F009FB101144EA014145
:1008100000FB0EFE8E4508D91CEB010100F1FF34F0
:100820006CD28E456AD90238614440EA0840A0FB88
:100830000294A1EB0E01A142C846A64656D353D05E
:100840005DB1B3EB080261EB0E0101FA07F722FA82
:1008500006F3F1401F43C5E9007100263146BDE8AB
:10086000F087C2F12003D8400CFA02FC21FA03F30E
:10087000914001434FEA1C471FFA8CFEB3FBF7F08F
:1008800007FB10360B0C43EA064300FB0EF69E42B4
:1008900004FA02F408D91CEB030300F1FF382FD24D
:1008A0009E422DD9023863449B1B89B2B3FBF7F6F5
:1008B00007FB163341EA034106FB0EF38B4208D9CE
:1008C0001CEB010106F1FF3816D28B4214D9023E0F
:1008D0006144C91A46EA004638E72E46284605E72D
:1008E0000646E3E61846F8E64B45A9D2B9EB0208FE
:1008F00064EB0C0E0138A3E74646EAE7204694E78E
:100900004046D1E7D0467BE7023B614432E73046C0
:1009100009E76444023842E7704700BF844641EA71
:10092000000313F003036DD1403A41D351F8043B67
:1009300040F8043B51F8043B40F8043B51F8043BB9
:1009400040F8043B51F8043B40F8043B51F8043BA9
:1009500040F8043B51F8043B40F8043B51F8043B99
:1009600040F8043B51F8043B40F8043B51F8043B89
:1009700040F8043B51F8043B40F8043B51F8043B79
:1009800040F8043B51F8043B40F8043B51F8043B69
:1009900040F8043B51F8043B40F8043B51F8043B59
:1009A00040F8043B51F8043B40F8043B403ABDD2C8
:1009B000303211D351F8043B40F8043B51F8043B6A
:1009C00040F8043B51F8043B40F8043B51F8043B29
:1009D00040F8043B103AEDD20C3205D351F8043BF9
:1009E00040F8043B043AF9D2043208D0D2071CBFC5
:1009F00011F8013B00F8013B01D30B8803806046EE
:100A0000704700BF082A13D38B078DD010F0030363
:100A10008AD0C3F10403D21ADB071CBF11F8013BD3
:100A200000F8013B80D331F8023B20F8023B7BE722
:100A3000043AD9D3013A11F8013B00F8013BF9D24D
:100A40000B7803704B7843708B78837060467047E7
:100A50000000000000000000000000000000000096
:100A60000000000000000000000000000000000086
:100A70000000000000000000000000000000000076
:100A800090F800F06DE9024520F007016FF0000CCE
:100A900010F0070491F820F040F049804FF0000476
:100AA0006FF00700D1E9002391F840F000F1080051
:100AB00082FA4CF2A4FA8CF283FA4CF3A2FA8CF389
:100AC0004BBBD1E9022382FA4CF200F10800A4FAF0
:100AD0008CF283FA4CF3A2FA8CF3E3B9D1E9042344
:100AE00082FA4CF200F10800A4FA8CF283FA4CF37B
:100AF000A2FA8CF37BB9D1E9062301F1200182FA35
:100B00004CF200F10800A4FA8CF283FA4CF3A2FA3A
:100B10008CF3002BC6D0002A04BF04301A4612BA48
:100B2000B2FA82F2FDE8024500EBD2007047D1E94B
:100B3000002304F00305C4F100004FEAC50514F0DA
:100B4000040F91F840F00CFA05F562EA05021CBFAB
:100B500063EA050362464FF00004A9E700000000C5
:100B600001F0FF01102A2BDB10F0070F08D010F85E
:100B7000013B013A8B422DD010F0070F42B3F6D162
:100B8000F0B441EA012141EA014122F007047FF07B
:100B900000070023F0E80256083C85EA010586EAD2
:100BA000010685FA47F5A3FA87F586FA47F6A5FA0E
:100BB00087F68EB9EED1F0BC01F0FF0102F007021A
:100BC00032B110F8013B013A83EA010313B1F8D1C5
:100BD0000020704701387047002D06BF35460338A6
:100BE000073815F0010F07D1013015F4807F02BFDF
:100BF000013015F4C03F0130F0BC0138704700BF30
:100C000070B54FF0FF0C4CF4E06C1CEA11541DBFA2
:100C10001CEA135594EA0C0F95EA0C0F00F0DEF86D
:100C20002C4481EA030621EA4C5123EA4C5350EA52
:100C3000013518BF52EA033541F4801143F48013A3
:100C400038D0A0FB02CE4FF00005E1FB02E506F034
:100C50000042E0FB03E54FF00006E1FB03569CF089
:100C6000000F18BF4EF0010EA4F1FF04B6F5007F8F
:100C700064F5407404D25FEA4E0E6D4146EB060601
:100C800042EAC62141EA55514FEAC52040EA5E508A
:100C90004FEACE2EB4F1FD0C88BFBCF5E06F1ED834
:100CA000BEF1004F08BF5FEA500E50F1000041EB6B
:100CB000045170BD06F0004646EA010140EA020018
:100CC00081EA0301B4EB5C04C2BFD4EB0C0541EA3A
:100CD000045170BD41F480114FF0000E013C00F34F
:100CE000AB8014F1360FDEBF002001F0004170BD73
:100CF000C4F10004203C35DA0C341BDC04F114048C
:100D0000C4F1200500FA05F320FA04F001FA05F217
:100D100040EA020001F0004221F0004110EBD370E4
:100D200021FA04F642EB06015EEA430E08BF20EA10
:100D3000D37070BDC4F10C04C4F1200500FA04F3B3
:100D400020FA05F001FA04F240EA020001F0004145
:100D500010EBD37041F100015EEA430E08BF20EAB8
:100D6000D37070BDC4F1200500FA05F24EEA020E00
:100D700020FA04F301FA05F243EA020321FA04F02F
:100D800001F0004121FA04F220EA020000EBD370E6
:100D90005EEA430E08BF20EAD37070BD94F0000FE6
:100DA0000FD101F00046400041EB010111F4801F1A
:100DB00008BF013CF7D041EA060195F0000F18BFCB
:100DC000704703F00046520043EB030313F4801F07
:100DD00008BF013DF7D043EA0603704794EA0C0FC1
:100DE0000CEA135518BF95EA0C0F0CD050EA4106D7
:100DF00018BF52EA4306D1D181EA030101F0004154
:100E00004FF0000070BD50EA410606BF104619467B
:100E100052EA430619D094EA0C0F02D150EA013687
:100E200013D195EA0C0F05D152EA03361CBF1046C8
:100E300019460AD181EA030101F0004141F0FE4167
:100E400041F470014FF0000070BD41F0FE4141F4EB
:100E5000780170BD70B54FF0FF0C4CF4E06C1CEAEB
:100E600011541DBF1CEA135594EA0C0F95EA0C0FA0
:100E700000F0A7F8A4EB050481EA030E52EA03355B
:100E80004FEA013100F088804FEA03334FF080557C
:100E900045EA131343EA12634FEA022245EA1115A9
:100EA00045EA10654FEA00260EF000419D4208BF5A
:100EB000964244F1FD0404F5407402D25B084FEA07
:100EC0003202B61A65EB03055B084FEA32024FF4B3
:100ED00080104FF4002CB6EB020E75EB030E22BF10
:100EE000B61A754640EA0C005B084FEA3202B6EBD0
:100EF000020E75EB030E22BFB61A754640EA5C007F
:100F00005B084FEA3202B6EB020E75EB030E22BF0E
:100F1000B61A754640EA9C005B084FEA3202B6EB0F
:100F2000020E75EB030E22BFB61A754640EADC00CE
:100F300055EA060E18D04FEA051545EA16754FEA30
:100F400006164FEAC30343EA52734FEAC2025FEA4E
:100F50001C1CC0D111F4801F0BD141EA00014FF0DD
:100F600000004FF0004CB6E711F4801F04BF0143AE
:100F70000020B4F1FD0C88BFBCF5E06F3FF6AFAECA
:100F8000B5EB030C04BFB6EB020C5FEA500C50F15A
:100F9000000041EB045170BD0EF0004E4EEA1131DD
:100FA00014EB5C04C2BFD4EB0C0541EA045170BDE4
:100FB00041F480114FF0000E013C90E645EA060E28
:100FC0008DE60CEA135594EA0C0F08BF95EA0C0F56
:100FD0003FF43BAF94EA0C0F0AD150EA01347FF49E
:100FE00034AF95EA0C0F7FF425AF104619462CE775
:100FF00095EA0C0F06D152EA03353FF4FDAE1046D8
:10100000194622E750EA410618BF52EA43067FF428
:10101000C5AE50EA41047FF40DAF52EA43057FF4B8
:10102000EBAE12E74FF0FF3C06E000BF4FF0010CC3
:1010300002E000BF4FF0010C4DF804CD4FEA410C27
:101040007FEA6C5C4FEA430C18BF7FEA6C5C1BD0F4
:1010500001B050EA410C0CBF52EA430C91EA030F75
:1010600002BF90EA020F0020704710F1000F91EAD2
:10107000030F58BF994208BF90422CBFD8176FEAA0
:10108000E37040F0010070474FEA410C7FEA6C5C6E
:1010900002D150EA013C07D14FEA430C7FEA6C5C75
:1010A000D6D152EA033CD3D05DF8040B704700BFA1
:1010B0008446104662468C461946634600E000BFEF
:1010C00001B5FFF7B7FF002848BF10F1000F01BDC1
:1010D0004DF808EDFFF7F4FF0CBF012000205DF88C
:1010E00008FB00BF4DF808EDFFF7EAFF34BF012011
:1010F00000205DF808FB00BF4DF808EDFFF7E0FFAA
:1011000094BF012000205DF808FB00BF4DF808EDFA
:10111000FFF7CEFF94BF012000205DF808FB00BF61
:101120004DF808EDFFF7C4FF34BF012000205DF843
:1011300008FB00BF4FEA410C7FEA6C5C02D150EA29
:10114000013C0AD14FEA430C7FEA6C5C02D152EABF
:10115000033C02D14FF0000070474FF00100704790
:101160004FEA410212F5001215D211D56FF47873CF
:10117000B3EB625212D94FEAC12343F0004343EA72
:10118000505311F0004F23FA02F018BF404270474D
:101190004FF00000704750EA013005D111F00040D7
:1011A00008BF6FF0004070474FF00000704700BF6D
:1011B0000023036043608360C36003614361836114
:1011C000C36103627047000010B5164C16492046F3
:1011D00000F0DEFE0A2000F04DFF1449204600F02A
:1011E000D7FE0A2000F046FF1149204600F0D0FE4D
:1011F0000A2000F03FFF0F49204600F0C9FE0A20F8
:1012000000F038FF0C49204600F0C2FE0A2000F032
:1012100031FF0A49204600F0BBFE0A2000F02AFFF9
:1012200010BD00BF540E0020280000200000002048
:1012300018000020100000202000002008000020DE
:101240001A4B1B78552B29D1184A92F800213AB332
:10125000164AD2F804210B2A24D1144A51780B449F
:10126000917851FA83F3D17851FA83F3117951FAD5
:1012700083F3517951FA83F3917951FA83F3D17958
:1012800051FA83F3117A51FA83F3517A51FA83F3C5
:10129000DBB2927A9A4207D1012070470020704752
:1012A000002070470020704700207047A00F0020EA
:1012B0002DE9F04F93B0262000F048FF864B5B7875
:1012C000522B00F08A80532B00F0C380512B45D065
:1012D000824BDE691F6AD3F80C80D3F81090D3F8E4
:1012E00014A0D3F800B05C689D689869FFF7ECF82B
:1012F000CDE910012846FFF7E7F8CDE90E012046B9
:10130000FFF7E2F8CDE90C015846FFF7DDF8CDE92B
:101310000A015046FFF7D8F8CDE908014846FFF723
:10132000D3F8CDE906014046FFF7CEF8CDE9040138
:101330003846FFF7C9F8CDE902013046FFF7C4F897
:10134000CDE90001DDE910236549664800F020FE83
:10135000262000F0EDFE13B0BDE8F08F5E4CE37880
:10136000A07840EA032000B2FFF79CF800224FF07B
:101370007C53FFF745FC56A3D3E90023FFF740FC5D
:10138000FFF7FAF8554DA8616379207940EA032008
:1013900000B2FFF787F800224FF07C53FFF730FCD4
:1013A0004BA3D3E90023FFF72BFCFFF7E5F8E86137
:1013B000E379A07940EA032000B2FFF773F8002236
:1013C0004FF07C53FFF71CFC41A3D3E90023FFF748
:1013D00017FCFFF7D1F828627AE73F4CE378A07852
:1013E00040EA032000B2FFF75DF800224FF07C5383
:1013F000FFF706FC00223C4BFFF702FCFFF7BCF8AE
:10140000364DE8606379207940EA032000B2FFF7A7
:1014100049F800224FF07C53FFF7F2FB0022324BD9
:10142000FFF7EEFBFFF7A8F82861E379A07940EA1F
:10143000032000B2FFF736F800224FF07C53FFF78D
:10144000DFFB0022284BFFF7DBFBFFF795F8686115
:101450003EE7214CE378A07840EA032000B2FFF792
:1014600021F800224FF07C53FFF7CAFB00221F4BEC
:10147000FFF7C6FBFFF780F8184D286063792079E5
:1014800040EA032000B2FFF70DF800224FF07C5332
:10149000FFF7B6FB0022154BFFF7B2FBFFF76CF826
:1014A0006860E379A07940EA032000B2FEF7FAFF12
:1014B00000224FF07C53FFF7A3FB00220B4BFFF7FA
:1014C0009FFBFFF759F8A86002E700BFAFF3008069
:1014D0009A99999999996340A00F00200C0A0020CD
:1014E00048A60008140E002000409F40008066407F
:1014F00000238360C36003610360436043618361D1
:101500007047000038B5064C2046FFF7F1FF054D47
:101510002846FFF7EDFF044BAB61044BA36138BDD8
:10152000300A00204C0A0020940D0020D40D002029
:1015300084B08DE80F00069B1B681A68C2F3001286
:1015400000925B6A02932AB903998B4202DA0499EA
:101550000131049132B90393049A43EA024305939B
:1015600004B07047039A9342F5DD049A013A04925D
:10157000F1E7000000B585B00A4B03F1100207CA7D
:101580008DE807000FCBFFF7D3FF074B03F11002E5
:1015900007CA8DE807000FCBFFF7CAFF012002F052
:1015A00021F9E9E7300A00204C0A002008B50120A3
:1015B00002F018F9FBE70000034B0360034B0B60DC
:1015C00080231360704700BF700C0020700A002059
:1015D00010B58EB0124C0DF11C0CA646BEE80F00E3
:1015E000ACE80F009EE807008CE80700002107A880
:1015F00002F0C3F80B4B1860EE4604F11C0CBCE87B
:101600000F00AEE80F009CE807008EE807000021FD
:10161000684602F0B2F8044B18600EB010BD00BF6F
:1016200010A60008680A00206C0A0020F0B58BB0F4
:1016300000240594069407940894099400942A4B76
:101640001A6B42F020021A631A6B02F02002009219
:10165000009A01941A6B42F080021A631A6B02F02E
:1016600080020192019A02941A6B42F001021A63FD
:101670001A6B02F001020292029A03941A6B42F072
:1016800002021A631A6B02F002020392039A049494
:101690001A6B42F004021A631B6B03F004030493F9
:1016A000049B124F01228021384600F05DFE104D50
:1016B00001224FF45061284600F056FE8023059326
:1016C000012606960794089405A9384600F064FDA3
:1016D0004FF45063059306960794089405A928468D
:1016E00000F05AFD0BB0F0BD00380240001402407B
:1016F0000004024008B50268034B9A4200D008BDBE
:1017000000F0A6FCFBE700BF0000014072B6FEE758
:1017100000B595B03022002108A802F067FF002331
:10172000039304930593069307930193214A116C45
:1017300041F080511164126C02F080520192019AC2
:1017400002931D4B1A6842F480421A601B6803F42E
:1017500080430293029B012308934FF48033099343
:1017600002230E934FF480020F92082210924FF43E
:10177000A872119212930423139308A800F0FAFDA3
:1017800098B90F23039302230493002305934FF486
:10179000A05306934FF480530793052103A801F04B
:1017A00049F820B915B05DF804FBFFF7AFFFFFF76C
:1017B000ADFF00BF003802400070004008B500F0E7
:1017C0002DFCFFF7A5FFFFF731FF00F037F900F020
:1017D00067F900F073FA00F0ABFA00F0E3FA00F0FA
:1017E000FBFA3C210E4801F020FC3C210D4801F0A1
:1017F0001CFC01220C490D4801F083FE0C4C012217
:101800000C49204601F07DFE0B49204600F0C0FB4C
:1018100000F014F8FFF7DCFE01F0AAFFFEE700BFBE
:10182000940D0020D40D0020A8100020540E00209C
:10183000140E00209C0F002080A6000810B5074C55
:101840002046FFF7B5FCFFF7BFFCFFF75BFE044B3C
:101850001C60044A5A60044A9A6010BD0C0A0020B9
:10186000C40C0020300A00204C0A002000B583B0D0
:10187000002200920D4B596C41F480415964596C1F
:1018800001F48041009100990192196C41F080515E
:1018900019641B6C03F080530193019B0F216FF0BF
:1018A000010000F00DFC03B05DF804FB00380240BD
:1018B00010B588B001460022192000F001FC192063
:1018C00000F036FC00240194144B5A6C42F00102E3
:1018D0005A645B6C03F001030193019B02A903A806
:1018E00001F07EF801F06CF843000D48A0FB0323E3
:1018F0009B0C013B0B480C4A026040F2E732C2608D
:1019000043600461846001F055FA10B1012008B011
:1019100010BD044801F016F9F9E700BF0038024095
:1019200083DE1B43D00C002000000140FEE7FEE7F1
:10193000FEE7FEE7FEE7704708B5034801F018F937
:10194000024801F015F908BDD00C0020140D00204C
:1019500008B5024801F064FE08BD00BF140E002067
:1019600008B5024801F05CFE08BD00BF540E00201F
:101970000120704708B502F00FFE162303604FF0F8
:10198000FF3008BD08B54FF0FF31FFF7F3FFFEE76A
:1019900070B50C461646002506E0AFF300802146E0
:1019A00001F8010B01350C46B542F6DB304670BD3F
:1019B00070B50C461646002504E014F8010BAFF391
:1019C00000800135B542F8DB304670BD08B50346EE
:1019D0000B4A126842B10A4A106803446A469342AD
:1019E00006D8074A136008BD054A06491160F2E7A8
:1019F00002F0D2FD0C2303604FF0FF30F3E700BF8D
:101A0000100D0020484E00204FF0FF3070474FF47B
:101A100000534B6000207047012070470020704742
:101A2000054BD3F8882042F47002C3F888204FF0A9
:101A300000629A60704700BF00ED00E000B58DB015
:101A40002422002103A802F0D1FD00230193029378
:101A50001148124A0260436083604FF6FF72C26011
:101A600003618361012303930593099303A901F0A3
:101A7000D5F950B900230193029301A9064801F05A
:101A8000F7FA28B90DB05DF804FBFFF73FFEF1E768
:101A9000FFF73CFEF6E700BF940D00200004004075
:101AA00000B58DB02422002103A802F09FFD002381
:101AB000019302931148124A0260436083604FF61B
:101AC000FF72C2600361836101230393059309934D
:101AD00003A901F0A3F950B900230193029301A9CE
:101AE000064801F0C5FA28B90DB05DF804FBFFF710
:101AF0000DFEF1E7FFF70AFEF6E700BFD40D002068
:101B00000008004000B58BB00023059306930793AF
:101B1000089309930368244A934205D0234A9342C9
:101B200022D00BB05DF804FB00210191204B1A6C10
:101B300042F002021A641A6C02F002020192019A47
:101B400002911A6B42F004021A631B6B03F0040348
:101B50000293029BC023059302230693099305A9D0
:101B6000144800F019FBDCE700210391104B1A6CBC
:101B700042F004021A641A6C02F004020392039AFF
:101B800004911A6B42F002021A631B6B03F002030A
:101B90000493049BC023059302230693099305A98C
:101BA000054800F0F9FABCE70004004000080040D6
:101BB00000380240000802400004024000B583B033
:101BC0000368154A934205D0144A934216D003B0D5
:101BD0005DF804FB00210091114B5A6C42F4003275
:101BE0005A645B6C03F400330093009B0A4619208F
:101BF00000F066FA192000F09BFAE8E70023019351
:101C0000074B5A6C42F480225A645B6C03F48023C5
:101C10000193019BDBE700BF004401400048014005
:101C20000038024000B589B0002303930493059364
:101C30000693079303681C4A934205D01B4A9342BC
:101C400019D009B05DF804FB00230193184B1A6BFF
:101C500042F020021A631B6B03F020030193019BE7
:101C600040230393022304930323079303A91148FA
:101C700000F092FAE5E7002302930D4B1A6B42F055
:101C800002021A631B6B03F002030293029B4FF4E0
:101C900000730393022304930323079303A90648C5
:101CA00000F07AFACDE700BF00440140004801404F
:101CB00000380240001402400004024000B589B020
:101CC00000230193029303930493059306930793D0
:101CD0001548164A0260436083604FF6FF72C26087
:101CE0000361836101F066F8A0B90F4801F07CF848
:101CF00098B960230193002202920392059201A9F0
:101D0000094801F015F958B90748FFF78BFF09B0EA
:101D10005DF804FBFFF7FAFCE7E7FFF7F7FCE8E7FD
:101D2000FFF7F4FCF0E700BF140D00200044014071
:101D300000B589B0002301930293039304930593A4
:101D4000069307931548164A0260436083604FF676
:101D5000FF72C2600361836101F02CF8A0B90F48E3
:101D600001F042F898B96023019300220292039295
:101D7000059201A9094801F0DBF858B90748FFF7B7
:101D800051FF09B05DF804FBFFF7C0FCE7E7FFF780
:101D9000BDFCE8E7FFF7BAFCF0E700BF540D0020F8
:101DA0000048014008B50A480A4B03604FF4E1338C
:101DB000436000238360C36003610C22426183613E
:101DC000C36101F0FFFA00B908BDFFF79FFCFBE714
:101DD000140E00200010014008B50A480A4B0360A9
:101DE0004FF4E133436000238360C36003610C223E
:101DF00042618361C36101F0E5FA00B908BDFFF7F4
:101E000085FCFBE7540E00200044004010B58AB06A
:101E100000230593069307930893099303682F4AB9
:101E2000934204D02E4A93422DD00AB010BD002414
:101E300001942C4B5A6C42F010025A645A6C02F016
:101E400010020192019A02941A6B42F001021A6385
:101E50001B6B03F001030293029B4FF4C0630593D5
:101E600002230693032308930723099305A91E4819
:101E700000F092F922460521252000F021F92520C5
:101E800000F056F9D1E700240394164B1A6C42F483
:101E900000321A641A6C02F400320392039A04941A
:101EA0001A6B42F001021A631B6B03F001030493E7
:101EB000049B0C2305930223069303230893072313
:101EC000099305A9084800F067F922460521262054
:101ED00000F0F6F8262000F02BF9A6E700100140EC
:101EE00000440040003802400000024010B50446A3
:101EF000204B984203D0204B9C4210D010BD1F496C
:101F0000D1F804315A1CC1F8042191F80821CA54AF
:101F1000012201F58471174801F0F3FAEBE7184B41
:101F200093F80801552814D0154BD3F804114A1C16
:101F3000C3F8042158540A2A11DC114B002283F8FB
:101F40000021C3F8042101220E490B4801F0D9FAFF
:101F5000D4E70022C3F8042183F80021E4E7FFF767
:101F60006FF90028E9D0064B012283F80021FFF722
:101F70009FF9E8E7140E0020540E0020940E002074
:101F8000A00F0020A8100020EFF30580704700008C
:101F90000EB410B593B00446FFF7F6FF70B34FF0E0
:101FA000500383F31188BFF36F8FBFF34F8F16AACF
:101FB0000192159902A802F06BFB174B9C4223D0AB
:101FC00002A8FEF75DFD642382B202A9204601F05B
:101FD00028FAFFF7D9FF10B1002383F3118813B05B
:101FE000BDE8104003B070474FF0E0234FF080523F
:101FF000C3F8042DBFF34F8FBFF36F8F204601F05E
:10200000ABFB2128F0D0D2E76423052202A92046A9
:1020100001F007FADDE700BF540E002008B50B4BB6
:102020001A6842F400721A601A6842F480621A60F8
:102030001A6842F480721A60032000F02FF8002022
:10204000FFF736FCFFF712FC002008BD003C024001
:10205000034A1168034B1B780B441360704700BFA1
:10206000AC10002034000020014B1868704700BFFE
:10207000AC10002038B50446FFF7F6FF0546B4F172
:10208000FF3F02D0044B1B781C44FFF7EDFF401BC1
:10209000A042FAD338BD00BF34000020074AD368FD
:1020A00023F4E0631B041B0C000200F4E060034314
:1020B00043F0BF6343F40033D360704700ED00E0AA
:1020C00000B5194BDB68C3F30223C3F1070CBCF165
:1020D000040F28BF4FF0040C03F1040EBEF1060FED
:1020E00018D9033B4FF0FF3E0EFA0CFC21EA0C011D
:1020F00099400EFA03F322EA0303194300280BDB8D
:102100000901C9B200F1604000F5614080F8001398
:102110005DF804FB0023E5E700F00F000901C9B2F8
:10212000024B1954F4E700BF00ED00E014ED00E0AD
:10213000002807DB00F01F02400901239340024AF8
:1021400042F82030704700BF00E100E000280CDBBF
:1021500000F01F024009012393402030034A42F857
:102160002030BFF34F8FBFF36F8F704700E100E067
:1021700090F83530DBB2022B03D080234365012079
:102180007047052380F835300268136823F0010397
:10219000136000207047000000230F2B00F2DA804C
:1021A000F0B583B03AE0072200E00022AA403243B3
:1021B0000234694D45F82420684A14686FEA0C021D
:1021C00024EA0C054E6816F4803F01D04CEA040561
:1021D000624C2560646802EA04054E6816F4003F0C
:1021E00001D04CEA04055D4C6560A46802EA040570
:1021F0004E6816F4801F01D04CEA0405574CA560C8
:10220000E46822404D6815F4001F01D04CEA040236
:10221000524CE26001330F2B00F29A8001229A4067
:102220000C6804EA020C32EA0404F3D14C68651E1F
:10223000012D03D9112C01D0122C12D185685E001A
:102240000324B44025EA0405CC68B4402C438460E0
:10225000456825EA02054C68C4F300129A402A43F7
:102260004260C5684FEA430E032404FA0EF4E243C9
:1022700025EA04058C6804FA0EF42C43C4604C680B
:10228000022C01D0122C0FD1DD08083550F8257032
:1022900003F00704A6000F24B44027EA04070C69E2
:1022A000B4403C4340F82540046814404A6802F0BA
:1022B000030202FA0EF2224302604A6812F0805FC3
:1022C000A8D000220192264A546C44F480445464FD
:1022D000526C02F480420192019A9C08A51C1E4A8D
:1022E00052F8256003F0030295000F22AA4026EA67
:1022F00002061C4A90423FF458AF02F580629042B9
:102300001AD002F58062904218D002F580629042A5
:1023100016D002F58062904214D002F5806290429D
:1023200012D002F58062904210D002F58062904295
:102330003FF439AF082239E7012237E7022235E7B7
:10234000032233E7042231E705222FE706222DE797
:1023500003B0F0BD704700BF00380140003C0140B1
:1023600000380240000002400AB181617047090450
:1023700081617047002800F0DA8170B582B00446B0
:10238000036813F0010F3BD09F4B9B6803F00C03D5
:10239000042B2CD09C4B9B6803F00C03082B21D002
:1023A0006368B3F5803F4FD0B3F5A02F52D0964B62
:1023B0001A6822F480321A601A6822F480221A60A5
:1023C0006368002B50D0FFF74FFE05468E4B1B680D
:1023D00013F4003F14D1FFF747FE401B6428F5D9E2
:1023E0000320ABE1884B5B6813F4800FD8D0864B99
:1023F0001B6813F4003F03D06368002B00F0998141
:10240000236813F0020F54D07F4B9B6813F00C0F1E
:102410003ED07D4B9B6803F00C03082B33D0E36860
:10242000002B68D0794B01221A60FFF71DFE05468C
:10243000754B1B6813F0020F54D1FFF715FE401BBC
:102440000228F5D9032079E16F4A136843F48033F9
:102450001360B5E76C4B1A6842F480221A601A6860
:1024600042F480321A60ABE7FFF7FEFD0546664B8B
:102470001B6813F4003FC3D0FFF7F6FD401B642830
:10248000F5D903205AE1604B5B6813F4800FC6D185
:102490005D4B1B6813F0020F03D0E368012B40F083
:1024A0004A81594A136823F0F803216943EAC103BA
:1024B0001360236813F0080F42D063696BB3534B6A
:1024C0000122C3F8802EFFF7CFFD05464E4B5B6F10
:1024D00013F0020F34D1FFF7C7FD401B0228F5D9D6
:1024E00003202BE1484A136823F0F803216943EAEB
:1024F000C1031360DDE7454B00221A60FFF7B4FD0E
:102500000546414B1B6813F0020FD2D0FFF7ACFD1C
:10251000401B0228F5D9032010E13C4B0022C3F8F0
:10252000802EFFF7A1FD0546374B5B6F13F0020FBE
:1025300006D0FFF799FD401B0228F5D90320FDE0E6
:10254000236813F0040F77D02F4B1B6C13F0805FC0
:1025500033D1002301932C4B1A6C42F080521A6441
:102560001B6C03F080530193019B0125284B1B68D2
:1025700013F4807F23D0A368012B34D0052B38D0EF
:10258000214B1A6F22F001021A671A6F22F004021F
:102590001A67A368002B3DD0FFF766FD06461A4B6D
:1025A0001B6F13F0020F46D1FFF75EFD801B41F257
:1025B00088339842F3D90320C0E00025D6E7144AB7
:1025C000136843F480731360FFF74EFD0646104B0B
:1025D0001B6813F4807FCED1FFF746FD801B0228D5
:1025E000F5D90320AAE0084A136F43F001031367EB
:1025F000CFE7054B1A6F42F004021A671A6F42F0D8
:1026000001021A67C5E700BF0038024000004742D8
:1026100000700040FFF728FD06464F4B1B6F13F07C
:10262000020F08D0FFF720FD801B41F2883398424B
:10263000F3D9032082E0E5B9A369002B7DD0464A97
:10264000926802F00C02082A51D0022B17D0434B9B
:1026500000221A66FFF708FD04463F4B1B6813F083
:10266000007F42D0FFF700FD001B0228F5D90320B0
:1026700064E0394A136C23F080531364DCE7374B72
:1026800000221A66FFF7F0FC0546334B1B6813F077
:10269000007F06D0FFF7E8FC401B0228F5D9032095
:1026A0004CE0E369226A1343626A43EA8213A26A36
:1026B0005208013A43EA0243E26A43EA0263264AC5
:1026C0005360264B01221A66FFF7CEFC0446224BCC
:1026D0001B6813F0007F06D1FFF7C6FC001B022821
:1026E000F5D903202AE0002028E0002026E0012B75
:1026F00026D0194B5B6803F48001E269914221D135
:1027000003F03F02216A8A421ED1616A47F6C07215
:102710001A408A421AD103F44032A16A8A4217D180
:1027200003F07063E26A934214D1002006E00120B6
:102730007047012002E0012000E0002002B070BDDF
:102740000120FBE70120F9E70120F7E70120F5E789
:102750000120F3E70120F1E7003802400000474282
:1027600008B5314B9B6803F00C03042B57D0082BA2
:1027700057D12D4B5A6802F03F025B6813F4800F6B
:102780002AD0294B5968C1F3881C4FEA4C11B1EB90
:102790000C006EEB0E0E4FEA8E1343EA906381013C
:1027A000091A63EB0E03DB0043EA5173C90011EB16
:1027B0000C0C43F10003590200234FEA4C2041EA7C
:1027C000DC51FDF729FF184B5B68C3F3014301336C
:1027D0005B00B0FBF3F025E0134B5968C1F3881C94
:1027E0004FEA4C11B1EB0C006EEB0E0E4FEA8E135C
:1027F00043EA90638101091A63EB0E03DB0043EAAD
:102800005173C90011EB0C0C43F100039902002332
:102810004FEA8C2041EA9C51FDF7FEFED3E70348C6
:1028200000E0034808BD00BF0038024000127A00F3
:102830000024F400002800F09B8070B50D4604468B
:102840004F4B1B6803F00F038B4208D2CBB24C4AAC
:102850001370136803F00F038B4240F08B802368E2
:1028600013F0020F17D013F0040F04D0454A9368F9
:1028700043F4E0539360236813F0080F04D0414AF7
:10288000936843F4604393603E4A936823F0F003F7
:10289000A1680B439360236813F0010F32D0636883
:1028A000012B21D09A1E012A25D9364A126812F02E
:1028B000020F61D033498A6822F0030213438B6010
:1028C000FFF7D2FB06462F4B9B6803F00C036268B0
:1028D000B3EB820F16D0FFF7C7FB801B41F28833A2
:1028E0009842F0D9032042E0264A126812F4003FD1
:1028F000E0D101203BE0234A126812F0007FD9D1D9
:10290000012034E01E4B1B6803F00F03AB4207D9D4
:10291000EAB21B4B1A701B6803F00F03AB422DD1B8
:10292000236813F0040F06D0164A936823F4E0538B
:10293000E1680B439360236813F0080F07D0114A36
:10294000936823F46043216943EAC1039360FFF76E
:1029500007FF0C4B9B68C3F303130B4AD35CD840AF
:102960000A4B18600A4B1868FEF7A2FF002070BDE2
:10297000012070470120FAE70120F8E70120F6E77F
:10298000003C02400038024084A6000830000020CD
:1029900038000020014B1868704700BF300000204D
:1029A00008B5FFF7F7FF044B9B68C3F38223034A84
:1029B000D35CD84008BD00BF0038024094A6000890
:1029C00008B5FFF7E7FF044B9B68C3F34233034AA4
:1029D000D35CD84008BD00BF0038024094A6000870
:1029E0000F2303600B4B9A6802F0030242609A685F
:1029F00002F0F00282609A6802F4E052C2609B68C2
:102A0000DB0803F4E0530361034B1B6803F00F037F
:102A10000B60704700380240003C024030B4036A4B
:102A200023F001030362036A4268846924F073049B
:102A30000D682C4323F0020C8B6843EA0C03104D05
:102A4000A84203D005F58065A84205D123F008030C
:102A5000CD682B4323F00403094DA84203D005F5AC
:102A60008065A84205D122F440724D692A438D69E0
:102A70002A43426084614A684263036230BC704703
:102A80000000014030B4036A23F480730362036AD8
:102A90004268C46924F0730C0C6844EA0C0523F402
:102AA00000738C6843EA0423114CA04203D004F560
:102AB0008064A04206D123F40063CC6843EA042377
:102AC00023F480630A4CA04203D004F58064A04242
:102AD00007D122F440524C6942EA04128C6942EA5E
:102AE00004124260C5614A68C263036230BC704729
:102AF0000000014030B4036A23F480530362036A88
:102B00004468C26922F4E6420D6842EA052223F4D1
:102B100000538D6843EA0533094DA84203D005F5FB
:102B20008065A84204D124F480444D6944EA8514A8
:102B30004460C2614A680264036230BC704700BFEF
:102B4000000001400268D36843F00103D3600268CB
:102B5000936803F00703062B03D0136843F00103C7
:102B60001360002070477047704770477047704788
:102B700010B5044603681A6912F0020F11D0DA6822
:102B800012F0020F0DD06FF002021A6101230377D9
:102B900003689B6913F0030F70D0FFF7E6FF002373
:102BA000237723681A6912F0040F12D0DA6812F042
:102BB000040F0ED06FF004021A61022323772368FA
:102BC0009B6913F4407F5FD02046FFF7CEFF0023C0
:102BD000237723681A6912F0080F12D0DA6812F00E
:102BE000080F0ED06FF008021A61042323772368C0
:102BF000DB6913F0030F4ED02046FFF7B6FF00232A
:102C0000237723681A6912F0100F12D0DA6812F0D5
:102C1000100F0ED06FF010021A610823237723687B
:102C2000DB6913F4407F3DD02046FFF79EFF002371
:102C3000237723681A6912F0010F03D0DA6812F0C3
:102C4000010F36D123681A6912F0800F03D0DA68B9
:102C500012F0800F34D123681A6912F0400F03D0AC
:102C6000DA6812F0400F32D123681A6912F0200F8F
:102C700003D0DA6812F0200F30D110BDFFF774FFD7
:102C80002046FFF773FF8AE72046FFF76DFF2046D7
:102C9000FFF76CFF9BE72046FFF766FF2046FFF734
:102CA00065FFACE72046FFF75FFF2046FFF75EFFBA
:102CB000BDE76FF001021A612046FEF71BFDC1E778
:102CC0006FF080021A61204600F019FAC3E76FF036
:102CD00040021A612046FFF74AFFC5E76FF0200265
:102CE0001A61204600F00AFAC7E700000368304A7C
:102CF000904212D0B0F1804F0FD0A2F57C429042AA
:102D00000BD002F58062904207D002F580629042BB
:102D100003D002F57842904203D123F070034A6851
:102D20001343234A90422AD0B0F1804F27D0A2F516
:102D30007C42904223D002F5806290421FD002F57F
:102D4000806290421BD002F57842904217D002F583
:102D50007052904213D002F5806290420FD002F57B
:102D6000806290420BD0A2F59832904207D002F5D3
:102D70008062904203D002F58062904203D123F436
:102D80004073CA68134323F080034A691343036006
:102D90008B68C3620B688362054B984203D003F5CE
:102DA0008063984201D10B6903630123436170473B
:102DB00000000140B0B110B5044690F83D3063B159
:102DC000022384F83D30214651F8040BFFF78EFFB3
:102DD000012384F83D30002010BD80F83C30FEF720
:102DE000EDFEEDE701207047B0B110B5044690F854
:102DF0003D3063B1022384F83D30214651F8040B85
:102E0000FFF774FF012384F83D30002010BD80F8E7
:102E10003C30FFF7A8FEEDE70120704700284CD0BA
:102E2000F8B50C46054690F83D30002B40D0022303
:102E300085F83D302A68936823F4804323F0070324
:102E40009360294651F8040BFFF750FF29688A6800
:102E50008B690E6A2068104323F4407C2CF0030C2D
:102E6000A268A36942EA032343EA0C0323F47C43E8
:102E700023F0FC03E269E76847EA022C4CEA030C02
:102E8000226A1303226943EA021343EA0C0326F081
:102E9000AA066268646942EA0412324388602968BB
:102EA0008B612B681A62012385F83D300020F8BD44
:102EB00080F83C30FEF726FEB9E70120704700009D
:102EC00030B4036A23F010030362036A4468826922
:102ED00022F4E6420D6842EA052223F020038D68C1
:102EE00043EA0513114DA84203D005F58065A842B9
:102EF00006D123F08003CD6843EA051323F0400395
:102F00000A4DA84203D005F58065A84207D124F4F4
:102F100040644D6944EA85048D6944EA850444604F
:102F200082614A688263036230BC704700000140DE
:102F300038B590F83C30012B66D004460D4601238D
:102F400080F83C30022380F83D300C2A1AD8DFE8A4
:102F500002F00719191920191919341919194700FC
:102F60000068FFF75BFD2268936943F008039361F3
:102F70002268936923F004039361226893692969A5
:102F80000B439361012384F83D30002084F83C001A
:102F900038BD0068FFF794FF2268936943F400632B
:102FA00093612268936923F4806393612268936933
:102FB000296943EA01239361E4E70068FFF762FDB2
:102FC0002268D36943F00803D3612268D36923F0F0
:102FD0000403D3612268D36929690B43D361D1E724
:102FE0000068FFF787FD2268D36943F40063D3616B
:102FF0002268D36923F48063D3612268D369296985
:1030000043EA0123D361BDE70220C1E701F01F01BC
:10301000012303FA01FC036A23EA0C030362036A37
:1030200002FA01F10B430362704710B5044661B127
:10303000042916D0012200210068FFF7E7FF0122D2
:1030400004212068FFF7E2FF04E00122002100686C
:10305000FFF7DCFF2268136843F0010313600020D0
:1030600010BD012204210068FFF7D0FFF2E7000045
:1030700090F83C30012B3DD010B4012380F83C3057
:10308000022380F83D3003685A689C6822F0700C77
:103090000A6842EA0C025A600368174A93421AD03F
:1030A000B3F1804F17D0A2F57C42934213D002F5C2
:1030B000806293420FD002F5806293420BD002F5FA
:1030C0007842934207D002F57052934203D0A2F5A2
:1030D0009432934204D124F080044A6814439C60E3
:1030E000012380F83D30002380F83C3018465DF81D
:1030F000044B704702207047000001407047704742
:103100000268D36823F49073D3600268536923F094
:1031100001035361202380F83A30704790F839302A
:10312000DBB2212B01D0022070478368B3F5805FAA
:1031300017D0036A5A1C02621A7803685A60C38C5B
:103140009BB2013B9BB2C3844BB90268D36823F0A6
:103150008003D3600268D36843F04003D36000204B
:103160007047036A1B880268C3F30803536003694E
:103170001BB9036A02330362E1E7036A01330362A6
:10318000DDE7000038B504460268136923F44053B4
:10319000C1680B4313618368026913434269134397
:1031A000C2691A430168CB6823F4164323F00C0369
:1031B0001343CB600268536923F4407381690B4366
:1031C0005361C369B3F5004F35D00368604A934239
:1031D00000F0918002F58062934200F08C80FFF74E
:1031E000DFFB0021031849411B1841F10001C90010
:1031F00041EA5371DB00181863684FEA83024FEA13
:10320000937341F10001FDF707FA524DA5FB00321F
:103210005109642303FB11031B013233A5FB032374
:103220005B0903F0F00202EB011203F00F032168C7
:1032300013448B608AE00368454A93422FD002F51D
:10324000806293422BD0FFF7ABFB0023021843EBC5
:103250000301121841F10001C90041EA5271D20084
:10326000101841F10001626892185B41FDF7D4F932
:10327000384DA5FB00325109642303FB1103DB0029
:103280003233A5FB03235B095A0002F4F87202EB08
:10329000011203F00703216813448B6056E0FFF727
:1032A0008FFB0023021843EB0301121841F10001C8
:1032B000C90041EA5271D200101841F10001626860
:1032C00092185B41FDF7A8F9224DA5FB0032510988
:1032D000642303FB1103DB003233A5FB03235B09EB
:1032E0005A0002F4F87202EB011203F0070321689E
:1032F00013448B602AE0FFF763FB00210318494168
:103300001B1841F10001C90041EA5371DB00181894
:1033100063684FEA83024FEA937341F10001FDF7BE
:103320007BF90C4DA5FB00325109642303FB11030B
:103330001B013233A5FB03235B0903F0F00202EB10
:10334000011203F00F03216813448B6038BD00BFE6
:10335000001001401F85EB512DE9F84305460F464B
:1033600016469946DDF820802C68246837EA040365
:103370000CBF4FF0010C4FF0000CB4451FD1B8F159
:10338000FF3FF1D0B8F1000F05D0FEF76DFEA0EBC6
:1033900009004045E8D92A68D36823F4D073D36084
:1033A0002A68536923F001035361202385F83930DB
:1033B00085F83A30002385F83830032000E00020FB
:1033C000BDE8F88358B310B5044690F839300BB314
:1033D000242384F839302268D36823F40053D3605F
:1033E0002046FFF7CFFE2268136923F49043136150
:1033F0002268536923F02A0353612268D36843F497
:103400000053D3600020E063202384F8393084F82F
:103410003A3010BD80F83830FEF7F8FCD8E70120CC
:1034200070472DE9F04383B01E4690F83930DBB287
:10343000202B56D104460D469046002955D0002A2F
:1034400055D090F83830012B53D0012380F8383014
:103450004FF00009C0F83C90212380F83930FEF786
:1034600003FE0746A4F82480A4F8268084F8389048
:1034700010E000963B46002280212046FFF76CFFBB
:10348000002838D12B882268C3F3080353602369CE
:10349000CBB90235E38C9BB2BBB1E28C92B2013A5C
:1034A00092B2E284A368B3F5805FE2D000963B4617
:1034B000002280212046FFF74FFFF0B915F8012BBD
:1034C00023685A60E6E70135E4E700963B460022B0
:1034D00040212046FFF740FF88B9202384F8393087
:1034E00000E0022003B0BDE8F0830120FAE70120EC
:1034F000F8E70220F6E70320F4E70320F2E70320D1
:10350000F0E790F83A30DBB2202B23D121B32AB375
:1035100090F83830012B23D0012380F838308162B5
:103520008285C2850023C363222280F83A2080F876
:1035300038300168CA6842F48072CA6001684A691A
:1035400042F001024A610168CA6842F02002CA6082
:1035500018467047022070470120704701207047CD
:1035600002207047704708B50168CA6822F040021F
:10357000CA60202280F83920FFF7F4FF002008BD40
:1035800008B590F83A30DBB2222B46D18368B3F508
:10359000805F0FD003690BBB03685A68836A591CAC
:1035A00081621A70C38D9BB2013B9BB2C385F3B19C
:1035B000002008BD826A036943B903685B68C3F3EE
:1035C00008031380836A02338362EBE703685B6856
:1035D000DBB21380836A01338362E3E703685B68CD
:1035E000826A511C816203F07F031370DAE702687C
:1035F000D36823F02003D3600268D36823F4807378
:10360000D3600268536923F001035361202380F8DB
:103610003A30FEF76BFC0020CBE70220C9E7704789
:1036200010B5044602681368D168526913F00F00A0
:1036300005D113F0200F02D011F0200F13D128B1C3
:1036400012F0010213D111F4907F10D113F0800F0A
:1036500002D011F0800F6CD113F0400F02D011F0A6
:10366000400F6AD110BD2046FFF78AFFFAE713F03A
:10367000010F06D011F4807F03D0E06B40F0010011
:10368000E06313F0040F04D01AB1E06B40F00200C5
:10369000E06313F0020F04D01AB1E06B40F00400B5
:1036A000E06313F0080F07D011F0200F00D11AB11A
:1036B000E26B42F00802E263E26B002AD2D013F020
:1036C000200F02D011F0200F21D123685B6903F095
:1036D0004003E26B12F0080F00D123B32046FFF73E
:1036E0000FFD23685A6912F0400F18D05A6922F072
:1036F00040025A61636B73B1124A1A65606BFEF740
:1037000037FD0028AED0606B036D9847AAE72046CE
:10371000FFF736FFD9E72046FFF781FFA2E72046F3
:10372000FFF77DFF9EE72046FFF779FF0023E36365
:1037300098E72046FFF7F2FC94E72046FFF713FFD7
:1037400090E700BF4937000808B5806B0023C385A8
:10375000C384FFF764FF08BD90F8393090F83A0051
:1037600018437047842801D0033070470020704709
:1037700008B500F02BFD002008BD2DE9F04387B00F
:1037800004460F464569BDB18669AEB1D0F80480E4
:10379000D0F80090B0F90800FFF7E4FF0296019519
:1037A00000903B4622694946404600F09FFC059048
:1037B000059807B0BDE8F08365682668D4F81080E6
:1037C000B4F90800FFF7CEFF05AB019300903B462C
:1037D0001FFA88F23146284600F0C3FC0128E7D0E2
:1037E0000020E6E708B500B9012000F039FE00200E
:1037F00008BD00F1080343604FF0FF328260C360F0
:10380000036100230360704700230361704743682E
:103810004B609A688A60516099600861036801335F
:103820000360704730B40D68B5F1FF3F11D000F16F
:1038300008031C465B681A68AA42FAD963684B60A1
:1038400099608C606160086103680133036030BC7B
:1038500070470469F2E70369416882688A604168D9
:1038600051605A68824206D0002202611A68013A09
:103870001A601868704782685A60F5E782B00023C2
:1038800001930D4B1B68B3F1FF3F08D04FF050037D
:1038900083F31188BFF36F8FBFF34F8FFEE74FF0B5
:1038A000500383F31188BFF36F8FBFF34F8F019BDA
:1038B000002BFCD002B070473C0000200848006894
:1038C000006880F308884FF0000080F3148862B627
:1038D00061B6BFF34F8FBFF36F8F00DF00BF0000F3
:1038E00008ED00E0DFF80C00016841F470010160B0
:1038F0007047000088ED00E04FF0807340F8043C12
:1039000021F0010140F8081C054B40F80C3C40F840
:10391000202C6FF0020340F8243C4438704700BF6D
:103920007D380008000000000000000000000000DA
:10393000074B19680868B0E8F04F80F30988BFF3B7
:103940006F8F4FF0000080F311887047AFF3008055
:10395000D04C00204FF0500383F31188BFF36F8FDA
:10396000BFF34F8F0B4A136801331360012B00D054
:1039700070474FF0E023D3F8043D13F0FF0FF7D06A
:103980004FF0500383F31188BFF36F8FBFF34F8F56
:10399000FEE700BF3C000020094B1B6843B94FF015
:1039A000500383F31188BFF36F8FBFF34F8FFEE790
:1039B000013B034A13600BB983F31188704700BFC2
:1039C0003C0000200000000000000000000000009B
:1039D000EFF30980BFF36F8F154B1A681EF0100FBD
:1039E00008BF20ED108A20E9F04F10602DE9090092
:1039F0004FF0500080F31188BFF34F8FBFF36F8FEC
:103A000000F054FD4FF0000080F3118809BC1968E4
:103A10000868B0E8F04F1EF0100F08BFB0EC108A35
:103A200080F30988BFF36F8F704700BFAFF300804A
:103A3000D04C002008B54FF0500383F31188BFF33A
:103A40006F8FBFF34F8F00F003FC28B14FF0E023DE
:103A50004FF08052C3F8042D002383F3118808BD72
:103A60004FF0E022002313619361054B1B68054969
:103A7000A1FB03139B09013B5361072313617047AB
:103A800030000020D34D62104FF0E023D3F8002D1A
:103A90003D4B9A421CD04FF0E023D3F8002D3B4B16
:103AA0009A421ED030B583B0394B1A78D2B2019207
:103AB000FF221A701B78DBB28DF803309DF80330BB
:103AC00003F05003334A1370334B07221A601BE094
:103AD0004FF0500383F31188BFF36F8FBFF34F8F05
:103AE000FEE74FF0500383F31188BFF36F8FBFF3EE
:103AF0004F8FFEE7284A1368013B13609DF803309F
:103B00005B00DBB28DF803309DF8033013F0800FBB
:103B1000F0D1214B1B68032B08D04FF0500383F3E7
:103B20001188BFF36F8FBFF34F8FFEE71B021A4A56
:103B3000136003F4E0631360019BDBB2144A13705B
:103B40004FF0E024D4F8203D43F47003C4F8203D46
:103B5000D4F8203D43F07043C4F8203DFFF780FFC8
:103B600000250E4B1D60FFF7BDFED4F8343F43F037
:103B70004043C4F8343FFFF7A1FE00F097FCFFF785
:103B80007DFE284603B030BD71C20F4170C20F41A7
:103B900000E400E0B0100020B41000203C00002041
:103BA000124A12F0070F1ED0D11D21F00701C1F5F6
:103BB000705313440A460E480260002141601344CA
:103BC000083B23F007030B48036059601960991AFA
:103BD00051601360084B1960084B1960084B4FF097
:103BE00000421A6070474FF47053E4E7BC100020A5
:103BF000C84C0020B8100020C44C0020C04C00204D
:103C0000BC4C0020164B1A461B688342FBD35168FC
:103C100002EB010C844509D0416800EB010C6345BF
:103C200009D00360904219D0106070474068014489
:103C300051601046F0E710B40A4C2468A3420BD040
:103C40005B681944416013681B680360904200D0B0
:103C500010605DF8044B70470460F7E7704700BFE1
:103C6000C84C0020B810002070B5054600F0E8FAF6
:103C7000344B1B68A3B1344B1B681D424AD135B18C
:103C8000083515F0070F02D025F007050835002D7F
:103C900042D02E4B1B68AB424DD32D4A146804E032
:103CA000FFF77EFFE7E722461C466368AB4202D27D
:103CB0002368002BF7D1234B1B68A3423DD0166825
:103CC00008362368136063685B1B102B10D96019DA
:103CD00010F0070F08D04FF0500383F31188BFF3A3
:103CE0006F8FBFF34F8FFEE743606560FFF78AFF7A
:103CF000626816490B689B1A0B60164909688B426B
:103D000001D214490B60104B1B68134363600023FE
:103D1000236002E0002600E0002600F025FB16F0FC
:103D2000070F0CD04FF0500383F31188BFF36F8F50
:103D3000BFF34F8FFEE70026EFE70026EDE73046A2
:103D400070BD00BFB8100020BC4C0020C04C00204B
:103D5000C84C0020C44C002080B338B50446A0F104
:103D6000080550F8043C164A1268134208D14FF077
:103D7000500383F31188BFF36F8FBFF34F8FFEE7BC
:103D800050F8081C41B14FF0500383F31188BFF382
:103D90006F8FBFF34F8FFEE723EA020340F8043C26
:103DA00000F04EFA54F8041C064A13680B441360E2
:103DB0002846FFF727FF00F0D7FA38BD704700BF4D
:103DC000BC4C0020C04C0020084B1B681B6823B96A
:103DD000074B4FF0FF321A607047044B1B68DB68DB
:103DE000DB685A68024B1A60704700BFD44C002051
:103DF000AC4D00202DE9F04707469846089DDDF8B8
:103E000024900A9C266B02F18042013A06EB82065E
:103E100026F0070600293AD08E464FF0000CBCF180
:103E20000F0F0BD81EF80C2004EB0C0383F8342082
:103E30001EF80C3013B10CF1010CF0E7002384F8EC
:103E40004330062D00D90625E56265644FF0000A6F
:103E5000C4F848A0201DFFF7D7FC04F11800FFF7B5
:103E6000D3FC2461C5F10705A5616462C4F84CA0C8
:103E700084F850A0424639463046FFF73DFD2060A9
:103E8000B9F1000F01D0C9F80040BDE8F087002368
:103E900084F83430D5E7000038B5002407E004EB9F
:103EA000840293000E481844FFF7A3FC0134062C4B
:103EB000F5D90C4D2846FFF79CFC0B4C2046FFF72C
:103EC00098FC0A48FFF795FC0948FFF792FC09485F
:103ED000FFF78FFC084B1D60084B1C6038BD00BF0E
:103EE000DC4C0020804D0020944D0020B44D00207B
:103EF000E04D0020CC4D0020D44C0020D84C0020B8
:103F000010B50446FFF726FD214A136801331360FC
:103F1000204B1B685BB1204B1B686BB91D4B1B68AA
:103F2000DA6AE36A9A4207D81A4B1C6004E0194B1C
:103F30001C601368012B28D0184A136801331360E2
:103F4000E06A01238340164A11680B43136000EBBB
:103F50008000211D134B03EB8000FFF758FCFFF797
:103F60001BFD0D4B1B687BB10A4B1B68DA6AE36AC9
:103F70009A4209D24FF0E0234FF08052C3F8042D4B
:103F8000BFF34F8FBFF36F8F10BDFFF785FFD3E7F0
:103F9000684D0020D04C0020C84D0020784D0020F6
:103FA0007C4D0020DC4C002010B5044690F85130C8
:103FB00063B1012B11D0022B0ED04FF0500383F3CD
:103FC0001188BFF36F8FBFF34F8FFEE7006BFFF7D2
:103FD000C3FE2046FFF7C0FE10BDFFF7BDFEFBE7A6
:103FE0000F4B1B68D3B110B5FFF7B4FC0D4BDB686A
:103FF000DC68201DFFF72FFC0B4A1368013B1360A0
:10400000074A1368013B1360FFF7C6FC2046FFF721
:10401000CBFF034B1B68002BE6D110BD704700BFE0
:104020006C4D0020E04D0020684D002008B5FFF7E2
:10403000D7FF074B1B68012BF9D94FF0E0234FF056
:104040008052C3F8042DBFF34F8FBFF36F8FEEE79D
:10405000DC4C002070B504460D461D4B1E681D4B00
:1040600018680430FFF7F7FB50B91A4B1B68DA6A7F
:10407000012303FA02F218490B6823EA02030B60DA
:10408000B4F1FF3F0DD03444124B1B685C60A64274
:1040900010D9124B18680F4B19680431FFF7C2FB97
:1040A00070BD002DEFD00B4B196804310C48FFF7A1
:1040B000AEFBF5E70B4B1868064B19680431FFF7A8
:1040C000B1FB094B1B68A342EAD9074B1C60E7E729
:1040D000F44D0020D04C00207C4D0020D84C002016
:1040E000CC4D0020D44C0020AC4D002030B587B022
:1040F0000B9C7CB10C9DB5B154250495049D542DA9
:104100001AD04FF0500383F31188BFF36F8FBFF3C2
:104110004F8FFEE74FF0500383F31188BFF36F8F8B
:10412000BFF34F8FFEE74FF0500383F31188BFF3C7
:104130006F8FBFF34F8FFEE7049D0C9D2C6302240D
:1041400085F8514000240394029505AC01940A9C23
:104150000094FFF74FFE0C98FFF7D2FE059807B0CA
:1041600030BD2DE9F04385B00746884614461E460B
:104170009000FFF779FD00B381465420FFF774FDEE
:104180000546B0B1C0F83090E5B1002385F8513054
:10419000039302950D9B01930C9B0093334622469B
:1041A00041463846FFF726FE2846FFF7A9FE0120C4
:1041B00005E04846FFF7D0FDE6E74FF0FF3005B0D9
:1041C000BDE8F0834FF0FF30F9E7000010B588B08C
:1041D00000240594069407AA06A905A8FDF7ECF9A2
:1041E000059B0293069B019300942346079A0E4970
:1041F0000E48FFF77BFF0E4B186090B14FF0500355
:1042000083F31188BFF36F8FBFF34F8F094B4FF0CC
:10421000FF321A60084B01221A60084B1C60FFF73E
:1042200033FC08B010BD00BF9CA600082D4000085C
:10423000A84D0020AC4D0020C84D0020F44D0020BA
:10424000024A136801331360704700BF744D0020A9
:10425000F8B53A4B1B68002B64D1394B1D6801350A
:104260001D60C5B9374B1B681B6843B14FF0500345
:1042700083F31188BFF36F8FBFF34F8FFEE7314A8F
:104280001168314B186810601960304A13680133A7
:104290001360FFF799FD2E4B1B68AB4238D90027FE
:1042A0002C4B1B68DB6A03EB83039A002A4B9B5859
:1042B000012B3CD901273AE00127224B1B681B68E0
:1042C00043B3204B1B68DB68DC6863689D4226D3E0
:1042D000261D3046FFF7BFFAA36A1BB104F1180090
:1042E000FFF7B9FAE36A01229A401C4908680243C1
:1042F0000A6003EB83039A00314617481044FFF726
:1043000086FAE26A134B1B68DB6A9A42D4D2D4E77E
:104310000027D2E70E4B4FF0FF321A60C0E70C4A7D
:104320001360BDE70E4A13680133136000270D4B7D
:104330001B6803B101273846F8BD00BF744D00204B
:10434000F44D0020D44C0020D84C0020B04D00206B
:10435000AC4D0020D04C0020DC4C00207C4D0020D7
:10436000704D0020F84D002038B5354B1B6843B91F
:104370004FF0500383F31188BFF36F8FBFF34F8F5C
:10438000FEE7FFF7E7FA2E4B1A68013A1A601B683E
:10439000002B4FD12B4B1B680BB900244BE00024A2
:1043A000294B1B681BB3284BDB68DC6804F1180041
:1043B000FFF751FA251D2846FFF74DFAE06A012361
:1043C0008340224A11680B43136000EB80002946AA
:1043D0001F4B03EB8000FFF71AFAE26A1D4B1B68C4
:1043E000DB6A9A42DCD31C4B01221A60D8E70CB17D
:1043F000FFF7EAFC194B1C6884B9174B1C68D4B151
:104400004FF0E0234FF08052C3F8042DBFF34F8FDD
:10441000BFF36F8F01240EE0013C07D0FFF718FFB8
:104420000028F9D00C4B01221A60F5E70B4B002253
:104430001A60E2E70024FFF7AFFA204638BD00BF5C
:10444000744D0020684D0020B44D00207C4D0020AC
:10445000DC4C0020D04C0020F84D0020704D002096
:1044600010B5A8B10446104B1B6843B14FF0500380
:1044700083F31188BFF36F8FBFF34F8FFEE7FFF712
:10448000DFFE00212046FFF7E5FDFFF76DFF48B98D
:104490004FF0E0234FF08052C3F8042DBFF34F8F4D
:1044A000BFF36F8F10BD00BF744D0020204B1B6801
:1044B0001BB1204B01221A6070471E4B00221A606C
:1044C0001D4B1B68B3FA83F3DBB2C3F11F0303EB8D
:1044D00083018A0019498A5842B94FF0500383F387
:1044E0001188BFF36F8FBFF34F8FFEE7134903EBC4
:1044F000830082000A4450684068506003EB830CDC
:104500004FEA8C0208321144884209D003EB83033E
:104510009A000A4B13445B68DA68094B1A607047CB
:10452000406862469100054A0A445060EEE700BFC9
:10453000744D0020F84D00207C4D0020DC4C002004
:10454000D04C0020DFF834D0002103E00C4B5B5846
:10455000435004310B480C4B42189A42F6D30B4A95
:1045600002E0002342F8043B094B9A42F9D3FDF7DD
:1045700057FA00F017F8FDF721F970470000022004
:10458000B4AA000800000020F0090020F009002073
:10459000444E0020FEE70000014B1868704700BF42
:1045A0004000002070B50D4E0D4D761BB61006D0A4
:1045B000002455F8043B01349847A642F9D1094E2E
:1045C000094D761B06F016F8B61006D0002455F8F3
:1045D000043B01349847A642F9D170BDA8AA00084F
:1045E000A8AA0008B0AA0008A8AA0008830730B546
:1045F00048D0541E002A3FD0CAB2034601E0013C15
:104600003AD303F8012B9D07F9D1032C2DD9CDB254
:1046100045EA05250F2C45EA054536D9A4F11002D7
:1046200022F00F0C03F1200EE6444FEA121C03F1B6
:10463000100242E9045542E9025510327245F8D1A0
:104640000CF1010214F00C0F03EB021204F00F0C3A
:1046500013D0ACF1040323F003030433134442F8F2
:10466000045B9342FBD10CF003042CB1CAB21C448E
:1046700003F8012B9C42FBD130BD64461346002C4D
:10468000F4D1F9E703461446BFE71A46A446E0E72B
:1046900070B50B4E9AB004466FF00045CDE9044565
:1046A000134600940A463068064C02956946039406
:1046B00000F03AF8009B00221A701AB070BD00BFDB
:1046C000400000200802FFFF024B13B1024800F037
:1046D00005B8704700000000E946000800230146C5
:1046E0001A46184601F086BD38B5084B084D5B1BCD
:1046F0009C1007D0043B1D44013C55F804399847F1
:10470000002CF9D1BDE8384005F07ABFB4AA000802
:10471000B0AA0008704700BF704700BF704700BFD5
:10472000704700BF000000002DE9F04F2DED0A8B0F
:10473000CFB00C4691460AEE101A09930AEE900A81
:1047400002F026FF036813931846FCF799F9A38932
:1047500012901A0603D52369002B00F0A0874D465E
:104760009FEDA57B2B78002425AACDE92344CDE934
:104770001544CDE917448DED107B1AEE909A0E94F6
:104780002292904614940594002B00F0EC81AB46E5
:1047900004E01BF8013F002B00F01A81252BF8D113
:1047A000BBEB050640F018819BF80030002B00F0B1
:1047B000DA8100234FF0FF329BF801708DF86B30E7
:1047C00006930BF1010B04929A462B2420210BF146
:1047D000010BA7F120035A2B00F23C81DFE813F014
:1047E000D5023A013A01D0023A013A013A016A008F
:1047F0003A013A016502FE023A017002E4023A010E
:10480000DF025B005B005B005B005B005B005B004A
:104810005B005B003A013A013A013A013A013A0180
:104820003A01D2013A0136028500D201D201D20109
:104830003A013A013A013A01CB023A013A01C60083
:104840003A013A013A0140023A0175023A013A014D
:104850004F073A013A013A013A013A013A013A0165
:104860003A01D2013A0136028700D201D201D201C7
:10487000BE02870080003A01B1023A019902C800E5
:10488000870280003A0140027D002A073A013A017E
:104890002E073A017D00A7F1300300221BF8017BAF
:1048A00002EB820203EB4202A7F13003092BF5D998
:1048B00006928EE7484602F06BFE4368179318464F
:1048C000FCF7DEF818900646484602F061FE836861
:1048D00015932021002E40F0C2859BF8007076E7EA
:1048E0009BF800704AF0200A71E74AF0100A1AF0AB
:1048F000200F099B00F09A81073323F007031A4623
:104900005B6852F8084B09921E46002BC0F26B857B
:10491000049B013301F03A802AF08003039354EAA8
:10492000060300F0E7840A2C76F1000380F09087FC
:1049300030340123DDF80CA08DF8374107930DF2D8
:104940003715049907989DF86B3081424FF00002AB
:10495000B8BF0146089203910C920F920D92002B62
:1049600000F08980039A0132039284E04AF0100A31
:104970001AF0200600F04B81099B073323F0070350
:104980005E6853F8084B09932AF48063039300236D
:1049900000228DF86B20049A551C00F026820399A2
:1049A00021F0800A54EA060140F01D82002A41F0FD
:1049B0002980002B40F0A484039B13F0010307938C
:1049C00000F0428530238DF837310DF23715B8E706
:1049D000BBEB050600F0C780249B33442493239B44
:1049E0000133072BC8E90056239309DC08F10808B6
:1049F000059B33440593D7E600000000000000004B
:104A00001AEE101A22AA484603F0B4FC90B90DF130
:104A10009408EDE71AEE101A22AA484603F0AAFC01
:104A2000002800F09180089B23B108991AEE900AA3
:104A300002F0A8FC1AEE103A9B8913F0400F059B78
:104A400018BF4FF0FF33059305984FB0BDEC0A8BAC
:104A5000BDE8F08F002F00F0868000238DF8D47021
:104A60008DF86B300122CDE90723039204930C9358
:104A70000F930D9335AD1AF002020A9202D0039AF9
:104A8000023203921AF084020B9205D1069A03991E
:104A9000561A002E00F30D83249C8BB1239B0DF13D
:104AA0006B0201330134C8F80020072B4FF00102DC
:104AB00024942393C8F8042000F3338308F10808F2
:104AC0000A9B83B1239B1BAA01330234C8F8002040
:104AD000072B4FF0020224942393C8F8042000F31C
:104AE0002D8308F108080B9B802B00F00F82049B9C
:104AF000079A9E1A002E00F350821AF4807F40F02D
:104B0000AB81079BC8F804301C44239BC8F80050B5
:104B10000133072B2494239300F3BE8208F1080885
:104B20001AF0040F05D0069B039A9D1A002D00F37E
:104B30001283DDE9053203998A42ACBF9B185B18EA
:104B40000593002C7FF466AF00232393089B1BB1D1
:104B50000899484602F016FC0DF194085D462B7842
:104B6000002B7FF414AE249B002B3FF463AF1AEEAE
:104B7000104A1AEE101A1AEE900A22AA03F0FAFB53
:104B8000A3895AE7099B073323F00703B3EC027BA1
:104B90008DED107BDDE91012099322F000430BEE3E
:104BA000101A0BEE903A4FF0FF32B0EE4B9AF0EE47
:104BB0006B9AA54B51EC190BFCF7BCFA002840F09E
:104BC0006784A14B51EC190B4FF0FF32FCF794FABC
:104BD000002840F05D84DDE9100100220023FCF78D
:104BE00081FA002840F0A5879DF86B30974D984AD0
:104BF0002AF0800A0321472FC8BF154600220892D9
:104C00000391079104920C920F920D92A7E61AF06D
:104C1000100340F033841AF0400200F05B87099AD9
:104C200052F8044B09921E46A4B2ADE653F8044B69
:104C300009931AF0100F40F00E841AF0400F00F0A4
:104C4000068444F3C036334624B25EE6099A002354
:104C500052F8041B8DF86B308DF8D410099201E7DF
:104C6000099C54F8045B00268DF86B60002D00F061
:104C7000D986049B5A1C00F046851A4631462846C0
:104C8000FBF76EFF0890002801F07A80089B0496DD
:104C9000591B079121EAE1719DF86B30099403914A
:104CA00008960C960F960D9659E6099B53F8042B1F
:104CB0000692002A80F2C383069A09935242069212
:104CC0009BF800704AF0040A81E54AF01003039350
:104CD000039B13F0200600F07383099B073323F036
:104CE00007035E6853F8084B0993012350E6099BBC
:104CF00053F8044B099330234AF0020278278DF8C9
:104D00006C30544B149303928DF86D70002602237F
:104D10003EE61AF0200F40F082841AF0100F40F0A7
:104D200078861AF0400F40F04C871AF4007F00F0AC
:104D30007086099B059953F8042B099311705D4601
:104D40000DE79BF800706C2F03BF9BF801704AF0D1
:104D5000200A0BF1010B4AF0100A38E59BF80070AD
:104D6000682F03BF9BF801704AF4007A0BF1010B26
:104D70004AF0400A2BE59BF800704AF0080A26E545
:104D80009BF800704AF0010A21E59DF86B30002B7A
:104D90007FF4A3AD9BF800708DF86B1017E59BF8BE
:104DA00000704AF0800A12E55A4612F8017B2A2F59
:104DB00001F0F381A7F13003092B934698BF00223D
:104DC00000F2F4871BF8017B02EB820203EB420244
:104DD000A7F13003092BF5D90492FAE49BF800708F
:104DE0008DF86B40F3E4CDF80CA0012B3FF49BADA4
:104DF000022B4EAD12D1149A04F00F032409D35C98
:104E000005F8013D44EA0674360954EA0603F3D175
:104E10004EAB5B1BDDF80CA0079392E504F0070393
:104E2000E40844EA4674F608303354EA06012A4698
:104E300005F8013DF2D10399C80700F14C824EAB51
:104E40005B1B8A4607937CE5FFFFEF7FA8A600085F
:104E5000ACA60008B8A60008652F40F3D780DDE9AE
:104E6000100100220023FCF733F9002800F0B48180
:104E7000239BBC4AC8F80020013301340122072BD0
:104E800024942393C8F8042000F3848508F10808CB
:104E90001C9B0E9A934280F2CD82129B139A1C4463
:104EA000C8E90023239B24940133072B239300F3A9
:104EB000E98308F108080E9B5D1E002D7FF730AED8
:104EC000102D239B41F34781A74F0A9722461026B6
:104ED0001AEE104A05E008F10808103D102D40F3C5
:104EE000678501331032072BC8E90076CDE92332FC
:104EF000F1DD22AA2146484603F03CFA00287FF45F
:104F000092ADDDE923320DF19408E6E7069B039AA2
:104F10009E1A002E7FF7EBAD102E239B41F34F809E
:104F200091490B9522461AEE105A0A910C4604E05C
:104F3000103E102E08F1080819DD0133103210213F
:104F4000072BCDE92332C8F80040C8F80410EFDD84
:104F500022AA294648460DF1940803F00BFA0028CE
:104F60007FF461AD103E102EDDE92332E5DC0B9DB0
:104F7000144601330A9AC8F800203444072BCDE9BF
:104F80002334C8F8046000F32F85049B079A9E1A07
:104F9000002E08F108087FF7B0AD102E239B40F3D8
:104FA000C48571480A90424621461AEE108A04468A
:104FB00004E0103E102E02F1080216DD013310311C
:104FC0001020072BCDE9233114605060F1DD22AAB7
:104FD0004146484603F0CEF900287FF424AD103E48
:104FE000102EDDE9233125AAE8DC90460C4601337A
:104FF0000A9AC8F800203444072BCDE92334C8F8B6
:10500000046000F3CF8108F1080876E50E9B012BC0
:1050100040F37C81239EC8F80050013601340123FF
:10502000072E24942396C8F8043000F3E78108F192
:105030000808129B139A01361C44072EC8E9002366
:10504000CDE9236400F3E88108F10808DDE91001E7
:1050500000220023FCF73CF8002840F076810E9BEC
:105060000136013B01351C44072EC8F80050239639
:10507000C8F80430249400F35A8108F10808169BFC
:10508000C8F8043001361C44072E1EABCDE923645A
:10509000C8F800307FF742AD1AEE101A22AA48462F
:1050A00003F068F900287FF4BEAC249C0DF194084D
:1050B00036E5102EDDE9233222DD199510241AEE93
:1050C000105A04E0103E102E08F1080817DD0133D5
:1050D00026491032072BC8E90014CDE92332F1DD4F
:1050E00022AA294648460DF1940803F043F9002806
:1050F0007FF499AC103E102EDDE92332E7DC199DD8
:10510000C8F804600133B418072B184AC8F8002007
:10511000CDE9233400F3E1839DF86B3008F10808F2
:10512000BBE41AEE101A22AA484603F023F900281D
:105130007FF479AC249C0DF19408C1E41AEE101AA6
:1051400022AA484603F016F900287FF46CAC249C90
:105150000DF19408C7E4102D239B26DD1AEE107A7A
:1051600010260AE0E8A60008FCA60008ECA6000845
:10517000103D102D08F1080817DD0133C24A103424
:10518000072BC8E90026CDE92334F1DD22AA3946F0
:1051900048460DF1940803F0EDF800287FF443AC85
:1051A000103D102DDDE92334E7DC0133B64AC8F8A1
:1051B00004502C44072BCDE92334C8F800207FF796
:1051C000B8AC1AEE101A22AA484603F0D3F8002809
:1051D0007FF429AC249CACE41C9A002A40F396830B
:1051E000DDE90D739F42A8BF1F46002F0BDD239BF7
:1051F00001333C44072BC8E900572494239300F360
:105200005C8508F108080D9E002FA8BFF61B002E34
:1052100000F353820D9B1AF4806F2B44079340F0E8
:1052200083821C9B0E9A934203DB1AF0010F00F05D
:10523000B884129A13991444C8E90012239A24944A
:105240000132072A239200F3768508F108080E9AA6
:105250000799AE18761AD51AAE42A8BF2E46002E70
:105260000DDD239BC8F8001001333444072BC8F828
:1052700004602494239300F39D8508F10808002E10
:10528000A8BFAD1B002D7FF74BAC102D239B40F327
:1052900062877E4F0A97224610261AEE104A05E0D2
:1052A00008F10808103D102D40F3828301331032BD
:1052B000072BC8E90076CDE92332F1DD22AA214689
:1052C000484603F057F800287FF4ADABDDE9233200
:1052D0000DF19408E6E7302B3FF49AAD3023023A03
:1052E00005F8013C4EAB9B1ADDF80CA00793154660
:1052F000FFF727BB049B002B7FF41AABDDF80CA053
:105300000023049307934EADFFF71BBB1AF0010F68
:105310007FF480AE239EC8F800500136013401238B
:10532000072E24942396C8F804307FF7A6AE1AEE11
:10533000101A22AA484603F01DF800287FF473AB28
:10534000DDE923640DF1940899E60E9B5D1E002DA6
:105350007FF795AE102D40F315874C4ACDF810A07D
:1053600023461AEE10AA0A921027144605E008F107
:105370000808103D102D40F39D8301361033072E91
:10538000C8E90047CDE92363F1DD22AA514648462A
:1053900002F0F0FF00287FF446ABDDE923630DF156
:1053A0009408E6E71AEE101A22AA484602F0E2FF35
:1053B00000287FF438AB249C0DF19408FFF79DBBC7
:1053C000039B13F0100340F02381039A12F0400274
:1053D00000F09B83099A52F8044B09921E46A4B22E
:1053E0000123FFF7D5BA2D2364428DF86B3066EBAD
:1053F0004606CDF80CA00123FFF7CDBA1AEE101A1D
:1054000022AA484602F0B6FF00287FF40CABDDE983
:1054100023640DF194080CE61AEE101A22AA4846ED
:1054200002F0A8FF00287FF4FEAADDE923640DF155
:1054300094080BE61AF0010F3FF472AB2DE59BF8D0
:1054400000700993FFF7C3B94EADFFF77ABA1AF4AB
:10545000007F40F0B083E6173346FFF756BA159B3E
:10546000002B3FF43AAA159B1B78002B3FF435AA7A
:105470009BF800704AF4806AFFF7A9B9099B53F8BA
:10548000044B0993FFF780BAECA60008FCA60008BD
:10549000DDE9100102460B46FBF74CFE002840F008
:1054A000C385612F00F08685412F00F09484049B12
:1054B000013327F02003039300F0B083472B00F063
:1054C0008285DDE910014AF48072002907924FF0CD
:1054D0000003C0F2248541EC180B0A930893039B48
:1054E000462B00F0F883452B00F04E85B0EE480ABD
:1054F000F0EE680A20AB01931DAB0093049A1CAB3D
:105500000221484600F050FF039B472B054640F020
:1055100069861AF0010F5646DDF81CA040F00B8595
:10552000209B5B1B0E93039B472B00F08B83039BFD
:10553000462B00F00F841C9B0D930D9B039A013B9F
:10554000412A1C9300F0D785FAB20021002BB8BF86
:105550000D9B8DF87820BABFC3F101032D222B22B9
:10556000092B8DF8792040F3B7850DF18704DFF81A
:1055700098C3224610468CFB0321DA17C2EBA10226
:1055800002EB8201A3EB4101303100F8011C194606
:105590006329134600F1FF32ECDC3033D9B2831EAD
:1055A0009C4202F8011C40F2048613460DF17A0277
:1055B00001E013F8011B02F8011B9C42F9D10DF127
:1055C00089030DF17A021B1A13441EAA9B1A169323
:1055D0000E9B169A012B1A44079240F3B785079B3E
:1055E000129A13440793079A002326F4806622EA4E
:1055F000E27246F4807A0C9303920F930D930A9B08
:10560000002B40F0458304939DF86B30FFF7A7B95A
:10561000099B53F8044B09930123FFF7B9B9099B80
:10562000059853F8041B0993C217C1E900025D46AF
:10563000FFF795BACDF80CA0FFF74ABBAF4B149318
:105640001AF0200600F0EF80099B073323F00703D0
:105650005E6853F8084B09931AF0010F09D054EA19
:10566000060306D030238DF86D704AF0020A8DF8DB
:105670006C302AF4806303930223FFF789B9A04BAF
:105680001493DDE71AEE101A22AA484602F072FEC1
:1056900000287FF4C8A9249C0DF194080BE41AEEAD
:1056A000900A402101F078FF20602061002800F07E
:1056B000848540236361FFF752B8102E239B40F38B
:1056C000698590480A90424621461AEE108A1027B2
:1056D000044604E00832103E102E40F32F820133BE
:1056E0001031072BC2E90047CDE92331F2DD22AAB0
:1056F0004146484602F03EFE00287FF494A9DDE9C9
:10570000233125AAE7E7284604960994FBF7B8F960
:1057100020EAE0719DF86B300790039108960C9693
:105720000F960D96FFF71BB90E9BCDF828B0DDF84C
:105730003CB0079E159FCDF81CA0EB180493424681
:10574000DDF860A00C9B0B951AEE108AA446BBF105
:10575000000F30D093BB013F0BF1FF3B179BC2E919
:10576000003A239B0133D444072BCDF890C02393F8
:1057700062DC0832049B38789B1B8342A8BF034637
:10578000002B1C460CDD239801309C440728C2E9FD
:105790000063CDF890C0239000F319813878083267
:1057A000002CACBF051B0546002D0BDC06440C9BF2
:1057B000BBF1000FCED1002B00F033820C9B013BDC
:1057C0000C93CBE7102D23981FDD1024634604E0D3
:1057D000103D102D02F1080216DD01304949103349
:1057E0000728C2E90014CDE92303F1DD22AA4146CE
:1057F000484602F0BFFD00287FF415A9103D102D8A
:10580000DDE9230325AAE8DC9C4601303D4B5560C9
:10581000AC440728CDE9230C136000F340823878AC
:1058200008320644C3E71AF0100300F0A480099B75
:1058300053F8044B09930FE722AA4146484602F069
:1058400099FD00287FF4EFA8DDF890C025AA91E724
:10585000039B079703F48063002209EE109ACDF8AA
:105860002080DDF854900DF59C7A174698460CE0A0
:105870000023204631460A22FAF7CEFE0A2C76F1A2
:1058800000031CD304460E46AA4620460A220023E3
:105890003146FAF7C1FE30320AF1FF3501370AF816
:1058A000012CB8F1000FE3D099F800309F42DFD10E
:1058B000FF2FDDD00A2C76F1000380F050814EAB33
:1058C0005B1BCDF854900E9719EE109ADDE907781E
:1058D000DDF80CA00793FFF734B81AEE101A22AACD
:1058E000484602F047FD00287FF49DA89DF86B30E4
:1058F000249C0DF19408FFF7D0B800BFB8A60008AB
:10590000CCA60008FCA6000867666666239BC04913
:10591000C8F80010013301340121072B249423938C
:10592000C8F8041000F32F8108F10808002A40F09D
:105930008A800E9A0AF0010313433FF4F1A8129BE8
:10594000139A1C44C8E90023239B24940133072B9A
:10595000239300F33F8108F108080E9AC8F800501D
:1059600001331444072BCDE92334C8F804207FF712
:10597000D5A8FFF791BB1AF0400200F0B980099A50
:1059800052F8044B09921E46A4B265E6CDF80CA06D
:10599000FEF7C9BF1AEE101A22AA484602F0EAFC26
:1059A00000287FF440A8249C0DF19408FFF770BAFA
:1059B000144601330A9AC8F800202C44072BC8F873
:1059C0000450CDE923347FF7A9A8FFF765BB22AACD
:1059D0004146484602F0CEFC00287FF424A83878DF
:1059E000DDF890C025AADBE61AEE101A22AA484676
:1059F00002F0C0FC00287FF416A8249C0DF1940846
:105A0000FFF775B8012BCDF80CA07FF4F1A9FEF7D4
:105A10008FBF099B059953F8042B5D4611600993CC
:105A2000FFF79DB8049A0895062A294628BF062242
:105A300004952B460392774D099407920C910F9190
:105A40000D91FEF78CBF129B13991C44C8E90013FB
:105A5000239B24940133072B239300F3BB8008F18D
:105A60000808002ABFF679AF5642103280F2AE83A2
:105A700069480A902146424610271AEE108A0446C9
:105A800004E00832103E102E40F3AF820133103193
:105A9000072BC2E90047CDE92331F2DD22AA4146B6
:105AA000484602F067FC00287EF4BDAFDDE92331F3
:105AB00025AAE7E7DDF810A01C4601360A9BC8F8C6
:105AC00000302C44072ECDE92364C8F804507FF73A
:105AD000D4AA2CE4099B1AF4007614BF53F8044BA3
:105AE00053F8044B09931CBF1646E4B2FEF74CBFB3
:105AF000099B1AF4007614BF53F8044B53F8044B77
:105B000009931CBF1646E4B2A6E5039B13F4007686
